:03000000020006F5
:03005F0002000399
:03000300020204F2
:2000620090E6047480F00000000090E6047482F00000000090E6047486F00000000090E6E6
:2000820004E4F00000000090E618E4F00000000090E6497482F00000000090E6497482F0DA
:2000A2000000000090E6497482F00000000090E6497482F00000000090E61AE4F000000090
:2000C2000090E6497486F00000000090E6497486F00000000090E6497486F0000000009093
:2000E200E6497486F00000000090E6187410F00000000090E61A740CF0000000002290E64B
:20010200007412F00000000090E60174E3F00000000090E60B7403F00000000090E670E0FB
:20012200FF543FF075B28075800090E6027498F00000000090E60374FEF00000000090E6DA
:200142001174A0F090E61074A0F090E61274A0F090E61474E0F00000000012006290E68D2D
:2001620074FFF000000000E4F508F509E50954E06002800E0074012508F508E43509F5096A
:2001820080EA7580802290E780E0FFBFC0028005BFC168801290E7C074A0F000000000903B
:2001A200E68F7401F08054E4F580F50AF50BC3E50A94D0E50B9407500E007401250AF50A95
:2001C200E4350BF50B80E7758080120062E4F50AF50BC3E50A94D0E50B9407500E00740152
:2001E200250AF50AE4350BF50B80E790E7C074A1F00000000090E68F7401F090E68D74FF28
:12020200F02212010090E6A1E0FF20E1F812018880F3C8
:06003500E478FFF6D8FD9F
:200013007900E94400601B7A009002187800759200E493F2A308B800020592D9F4DAF27596
:0200330092FF3A
:20003B007800E84400600A7900759200E4F309D8FC7800E84400600C7900900000E4F0A3D3
:04005B00D8FCD9FAFA
:0D00060075810B120214E5826003020003F5
:0402140075820022CD
:00000001FF
