:03000000020006F5
:0300650002000393
:0300030002009C5C
:20006800858221858322152174FFB521021522E521452270F122858208858309150874FFCE
:20008800B508021509E5084509600890071C12006880E9227FFF758000C007120B71D00781
:2000A800BFFF028003020143758200C007120A9EE582D00760F2758200C007120A76AD8228
:2000C800AE83D007BD0145BE0042758200120A37E0FFC007120A4FE4F0120A4FE582858304
:2000E800F0D0072401F582E435F0F583EFF0C007120A4F85822285832375216175240275A8
:200108002500758200120AC5D0078022C007120A4F7401F0120A4F85822285832375216114
:20012800752401752500758200120AC5D007758200C007120A53D0070200A8BF0002800ADB
:20014800BF01028008BF020B800602015C02019402024C22758200120A9EE58260F675822E
:2001680000120A76AE82758200C006120A37858222858323D0068E247525007521E17582C1
:2001880000120AC5758200120A5380C87E007F00758200C007C006120A9EE582D006D00779
:2001A800703FF582C007C006120A76AC82AD83D006D007BCFFDABD00D7758200C007C0063A
:2001C800120A76AC82AD83D006D007EC2EFEED3FFF758200C007C006120A53D006D0078017
:2001E800AF758200C007C006120A76AC82AD83D006D007EC2EFEED3FFFC007C006120A4FEC
:20020800D006D0078F05EDF0C007C006120A4FE5828583F0D006D0072401F582E435F0F51A
:2002280083EEF0120A4F8582228583237521E1752402752500758200120AC5758200120AFF
:1C024800530201941203F0758201120A9EE58260F612040C75820B120B4180EB4F
:06005F00750C01750D0097
:2002640074B0120BF4A37404120BF4A3E4120BF4A3E4020BF4120A4F74F2F0120A4FE58266
:200284008583F02401F582E435F0F583740AF0120A4FAE82AF837D00751C02751D008E8258
:2002A4008F838DF01209C4120A4F858222858323752100752404752500758201020AC5ADCA
:2002C40082AE83AFF0120C0FF9A3120C0FFAA3120C0FFBA3120C0FFCE94A4B4C705F740430
:2002E4002DFAE43EFB8F048A828B838CF0120C0F704BC007C006C005C004C003C0021202F6
:2003040079D002D003D004D005D006D0078A828B838CF0120C0FF9098A828B838CF0E9120F
:200324000BF48D828E838FF074B0120BF4A37404120BF4A3E4120BF4A3E4120BF48D828EED
:20034400838FF0120C0FF9A3120C0FFAA3120C0FFBA3120C0FFC19B9FF091ABAFF051BBB88
:20036400FF011C8D828E838FF0E9120BF4A3EA120BF4A3EB120BF4A3EC120BF4758201C02F
:2003840007C006C005120A9EE582D005D006D0076047851182851283E0FCBCF202800475C6
:2003A40082FF2274042DFAE43EFB8F048A828B838CF0120C0FF9198A828B838CF0E9120BD6
:2003C400F475820FC007C006C005120B41758201120A53D005D006D00774042DFDE43EFEC4
:2003E4008D828E838FF0120C0FF58222758201120A37858211858312758200120A378582C6
:200404000F858310750E0022758201120A76851182851283E0FF5307E0BF0002800ABFA08D
:20042400028008BFC00B80060205690208820208EB851182851283E0FFBFE02D750C018549
:200444001182851283A3E0FFC4540F75F002A4242FF582740C35F0F583E493FDA3E4938D35
:200464000A740F5FF50B120473758201020A53120A4F7401F0120A4FAE82AF83C007C00682
:20048400120A4FD006D007E02EFEE43FFF7D0075214175220C7523807524047525008E82BC
:2004A4008F838DF0120B9F120A4FE5828583F02403F582E435F0F58374A0F0120A4FAE8265
:2004C400AF83E024048E828F83F0120A4FAE82AF83C007C006120A4FD006D007E02EFEE46A
:2004E4003FFF7D0075214575220C75238075240F7525008E828F838DF0120B9F120A4FAEF1
:2005040082AF83E0240F8E828F83F0120A4FAE82AF837D00C007C006C005120A4FD005D052
:2005240006D007E0FC8C1C751D008E828F838DF01209C4120A4FAE82AF83C007C006120AD0
:200544004FD006D007E0FD7C0074022DF524E43CF5257521008E228F23758201120AC57506
:200564008209020B41751301851182851283E0FE750E01630C01EE30E2037513027582008D
:20058400120A53E5132511FDE43512FE758201C006C005120A76AB82AC83D005D006A913BC
:2005A4007A00EBC399FBEC9AFCEB24FEF524EC34FFF5257521218D228E23758200C002C00A
:2005C40001120AC5758201120A5390001475F040120264120279D001D002758201C002C063
:2005E40001120A9EE582D001D00260EE851182851283E0FEBEF20280012275820FC002C0F7
:2006040001120B41758201120A53D001D002758200C002C001120A9EE582D001D0027003BC
:20062400020718758210C002C001120B41120A4F7402450CF0120A4FE5828583F0D001D020
:20064400022513FDE435F0FE8D198E1A751B00A80FAB107E00758200C006C003C002C00187
:20066400C000120A76858224858325D000D001D002D003D00688218B228E23851982851AEA
:2006840083851BF0C002C001120B9F120A4FAD82AE83D001D0027C00758200C006C005C0D8
:2006A40004C002C001120A76E5828583F0D001D002D004D005D00629F51CEA35F0F51D8DB4
:2006C400828E838CF0C002C0011209C4120A4FAD82AE83D001D002758200C006C005C002F3
:2006E400C001120A76E5828583F0D001D002D005D00629FBEA35F0FC74022BF524E43CF5F8
:20070400257521008D228E23758201120AC5758200020A53758200C002C001120A76AD8250
:20072400AE83D001D002BDFF05BE00028003020612C002C001120A4F7412450CF0120A4FA3
:20074400E5828583F0D001D0022513FDE435F0FE7C00A80FAB107F00758200C007C006C0A6
:2007640005C004C003C002C001C000120A76858224858325D000D001D002D003D004D005CD
:20078400D006D00788218B228F238D828E838CF0C002C001120B9F120A4FAE82AF83D00127
:2007A400D0027D00758200C007C006C005C002C001120A76E5828583F0D001D002D005D0E1
:2007C40006D00729F51CEA35F0F51D8E828F838DF0C002C0011209C4120A4FAE82AF83D03F
:2007E40001D002758200C007C006C002C001120A76E5828583F0D001D002D006D00729FCB5
:20080400EA35F0FD74022CF524E43DF5257521008E228F23758201C002C001120AC5758287
:2008240000120A53D001D002758201C002C001120A9EE582D001D00260EE851182851283E3
:20084400E0FF5307F0BFB00675820D020B41851182851283E0FF5307F0BFA00E75820CC019
:2008640002C001120B41D001D002758201C002C001120A53D001D002630C01020612851103
:2008840082851283E0FF30E45275820D120B41851182851283E05401FFB50C07E50E70037D
:2008A400630C01120A4F74A3F0120A4FAE82AF837D00751C01751D008E828F838DF012092A
:2008C400C4120A4F858222858323752100752403752500758201120AC5800675820C120B46
:2008E40041758201020A53851182851283E0FFBFC202800FBFCA18851182851283A3E0FFE4
:20090400B50B0C75820E120B41120919750E00758201020A53120A4FAE82AF837D008511B6
:20092400218512227523007524037525008E828F838DF0120B9F7521008511228512237533
:0B0944002403752500758201020AC51E
:200C2F001000180020002800300040006000800000017780700045504100000000612738E7
:050C4F0094000000000C
:20094F00AF82AC21AD22AE238C828D838EF0120C0FFAA3120C0FFB8A00E86207EFC454F08A
:20096F0062078B247525008F017F008903E46224EB62258902EFC40354F8CAC403CA6ACA23
:20098F0054F8CA6AFBE5246202E5256203EFC4C9C4540F69C9540FC969C9FFE96202EF6221
:2009AF00038C828D838EF0EA120BF4A3EB120BF48A828B8322AD82AE83AFF0751F63752028
:2009CF00638D028E038F04A81CA91D8A828B838CF0120C0FF51EA3AA82AB8375211F752249
:2009EF0000752340851E82C004C003C002C001C00012094FD000D001D002D003D00418B8CD
:200A0F00FF0119E84970C4A81F8A828B838CF0E8120BF474012AFDE43BFE8C07AC208D82CC
:080A2F008E838FF0EC020BF442
:200A3700AF82900C54E493FD740193FEEF2FFCE42DF582EC3EF5832290010022AF82900C1E
:200A570054E493FD740193FEEF2FFCE42DFDEC3EFE74012DF58274013EF5837402F022AFE6
:200A770082900C54E493FD740193FEEF2FFCE42DFDEC3EFE74022DF58274013EF583E0FFFF
:200A97007E008F828E8322AF82900C54E493FD740193FEEF2FFCE42DFDEC3EFE74012DF5FB
:200AB7008274013EF583E0FF74015FF58222AF82E5244525700122900C54E493FD74019383
:200AD700FEEF2FFCE42DFFEC3EFE74032FF58274013EF583E521F0E52424FFFCE52534FF0C
:200AF700FD7B008B017A00C3E99CEA9D501A8F0174012EFAEB2522F582E43523F583E0F8C6
:200B170089828A83F00B80DB74012FF58274013EF5837401F074012EFEEB2522F582E43542
:200B370023F583E08F828E83F022AF82900C54E493FD740193FE74032DF58274013EF5830E
:200B570074E1F074012DF58274013EF5837401F08D8274012EF583EFF0227F008F82C0070E
:200B7700120A53D0070FBF020040F1900C54E493FE740193FF74032EF58274013FF58374EF
:080B9700E1F0758208020B4138
:020C5400000896
:06003500E478FFF6D8FD9F
:200B9F00AD82AE83AFF08D268E278F2885212985222A85232BA824A9258803890418B8FF24
:200BBF000119EB4C6025852982852A83852BF0120C0FFCA385822985832A8D828E838FF071
:150BDF00EC120BF4A3AD82AE8380CE8526828527838528F02298
:200013007900E94400601B7A00900C56780075A002E493F2A308B8000205A0D9F4DAF27530
:02003300A0FF2C
:1B0BF40020F71130F6138883A88220F509F6A8837583002280FEF280F5F02200
:20003B007800E84400600A790075A000E4F309D8FC7800E84402600C7902900000E4F0A3C1
:04005B00D8FCD9FAFA
:0D00060075812B120C2BE5826003020003B4
:1C0C0F0020F71430F6148883A88220F507E6A88375830022E280F7E49322E022F4
:040C2B0075820022AC
:00000001FF
